:100000000C945D000C9485000C9485000C94850084
:100010000C9485000C9485000C9485000C9485004C
:100020000C9485000C9485000C9485000C9485003C
:100030000C9485000C9485000C9485000C9485002C
:100040000C9477020C9485000C94E7020C94C10286
:100050000C9485000C9485000C9485000C9485000C
:100060000C9485000C9485000000000024002700FB
:100070002A0000000000250028002B0004040404CE
:100080000404040402020202020203030303030342
:10009000010204081020408001020408102001021F
:1000A00004081020000000080002010000030407FB
:1000B0000000000000000000070411241FBECFEF65
:1000C000D8E0DEBFCDBF11E0A0E0B1E0E8E7F8E0A6
:1000D00002C005900D92AA35B107D9F722E0AAE532
:1000E000B1E001C01D92A230B207E1F710E0CDE50A
:1000F000D0E004C02197FE010E943404CC35D10722
:10010000C9F70E9419030C943A040C940000EDEA1C
:10011000F0E02491E9E9F0E09491E5E8F0E0E49181
:10012000EE23C9F0222339F0233001F1A8F4213065
:1001300019F1223029F1F0E0EE0FFF1FEE58FF4FCA
:10014000A591B4912FB7F894EC91811126C09095A8
:100150009E239C932FBF08952730A9F02830C9F023
:10016000243049F7209180002F7D03C0209180002A
:100170002F7720938000DFCF24B52F7724BDDBCFEE
:1001800024B52F7DFBCF2091B0002F772093B000B6
:10019000D2CF2091B0002F7DF9CF9E2BDACFE9E9A5
:1001A000F0E04491E5E8F0E02491222399F030E07A
:1001B000220F331FF901E859FF4FA591B491F901BE
:1001C000EE58FF4F259134912FB7F894EC91E42B22
:1001D000EC932FBF009719F480E00C9487008F3FB9
:1001E000910511F481E0F9CFEDEAF0E0E491E3301C
:1001F00019F140F4E130B1F0E230C9F080389105F6
:100200008CF7EACFE73011F1E83041F1E430B1F793
:100210002091800020622093800090938B00809337
:100220008A00089594B5906894BD87BD089594B5EB
:10023000906294BD88BD089520918000206820932D
:100240008000909389008093880008959091B00079
:1002500090689093B0008093B30008959091B0009F
:1002600090629093B0008093B4000895AF92BF92D3
:10027000CF92DF92EF92FF920F931F93CF93DF9372
:100280006C017B018B01040F151FEB015E01AE18A1
:10029000BF08C017D10759F06991D601ED91FC91C3
:1002A0000190F081E02DC6010995892B79F7C501F0
:1002B000DF91CF911F910F91FF90EF90DF90CF9042
:1002C000BF90AF900895FC01538D448D252F30E0F1
:1002D000842F90E0821B930B541710F0CF96089553
:1002E00001970895FC01918D828D981761F0A28D80
:1002F000AE0FBF2FB11D5D968C91928D9F5F9F7346
:10030000928F90E008958FEF9FEF0895FC01918DFB
:10031000828D981731F0828DE80FF11D858D90E068
:1003200008958FEF9FEF0895FC01918D228D892F05
:1003300090E0805C9F4F821B91098F7399270895ED
:1003400085E691E00E94940121E0892B09F420E0E8
:10035000822F089580E090E0892B29F00E94A0016F
:1003600081110C9400000895FC01A48DA80FB92FF1
:10037000B11DA35ABF4F2C91848D90E001968F73CD
:100380009927848FA689B7892C93A089B1898C91EC
:10039000837080648C93938D848D981306C002883B
:1003A000F389E02D80818F7D80830895EF92FF9205
:1003B0000F931F93CF93DF93EC0181E0888F9B8D88
:1003C0008C8D98131AC0E889F989808185FF15C042
:1003D0009FB7F894EE89FF896083E889F989808165
:1003E0008370806480839FBF81E090E0DF91CF9134
:1003F0001F910F91FF90EF900895F62E0B8D10E056
:100400000F5F1F4F0F731127E02E8C8D8E110CC0C4
:100410000FB607FCFACFE889F989808185FFF5CF0F
:10042000CE010E94B401F1CFEB8DEC0FFD2FF11D39
:10043000E35AFF4FF0829FB7F8940B8FEA89FB894C
:1004400080818062CFCFCF93DF93EC01888D8823AA
:10045000B9F0AA89BB89E889F9898C9185FD03C027
:10046000808186FD0DC00FB607FCF7CF8C9185FF0C
:10047000F2CF808185FFEDCFCE010E94B401E9CF9C
:10048000DF91CF9108958130910559F030F082309D
:10049000910551F0039759F0089590E080E00C9495
:1004A000CF0089E190E0FBCF85E590E0F8CF8FEFBA
:1004B00090E0F5CFCF93DF93FC0101900020E9F7A6
:1004C0003197AF01481B590BBC0185E691E00E94B2
:1004D0003601EC0142E050E062E171E085E691E036
:1004E0000E9436018C0F9D1FDF91CF9108951F92BE
:1004F0000F920FB60F9211242F933F938F939F93D8
:10050000AF93BF938091610190916201A0916301CB
:10051000B09164013091600123E0230F2D3758F52D
:100520000196A11DB11D20936001809361019093FC
:100530006201A0936301B093640180915C0190918A
:100540005D01A0915E01B0915F010196A11DB11DF9
:1005500080935C0190935D01A0935E01B0935F0175
:10056000BF91AF919F918F913F912F910F900FBEAF
:100570000F901F90189526E8230F0296A11DB11D1C
:10058000D2CF1F920F920FB60F9211242F933F9349
:100590004F935F936F937F938F939F93AF93BF938B
:1005A000EF93FF9385E691E00E94B401FF91EF91F4
:1005B000BF91AF919F918F917F916F915F914F917B
:1005C0003F912F910F900FBE0F901F9018951F9283
:1005D0000F920FB60F9211242F938F939F93EF9347
:1005E000FF93E0917501F09176018081E0917B01AC
:1005F000F0917C0182FD1BC0908180917E018F5F14
:100600008F7320917F01821741F0E0917E01F0E02D
:10061000EB59FE4F958F80937E01FF91EF919F9153
:100620008F912F910F900FBE0F901F901895808182
:10063000F4CF789484B5826084BD84B5816084BD34
:1006400085B5826085BD85B5816085BD80916E0070
:10065000816080936E0010928100809181008260A1
:1006600080938100809181008160809381008091DE
:1006700080008160809380008091B10084608093CD
:10068000B1008091B00081608093B00080917A00C9
:10069000846080937A0080917A00826080937A00EF
:1006A00080917A00816080937A0080917A008068DE
:1006B00080937A001092C100E0917501F09176016B
:1006C00082E08083E0917101F09172011082E091EB
:1006D0007301F091740180E1808310927D01E091BB
:1006E0007901F0917A0186E08083E0917701F091C1
:1006F0007801808180618083E0917701F0917801B9
:10070000808188608083E0917701F0917801808119
:1007100080688083E0917701F091780180818F7DFE
:10072000808310925B0110925A0185E191E00E9452
:100730005A028FE291E00E945A0289E491E00E94FD
:100740005A0200E010E082E0E82EF12CCC24C394A1
:10075000D12C23E0A22EB12C85E691E00E949401D9
:10076000181619062CF585E691E00E9472018F3665
:10077000D9F5C0915A01D0915B01C130D10511F179
:1007800030F0C230D10539F1C330D10541F489E1EF
:1007900090E00E94CF00D0925B01C0925A018091FC
:1007A0005A0190915B01C817D90711F00E944302CA
:1007B0000115110589F20E94A001882369F20E94A7
:1007C0000000CACF85E590E00E94CF00F0925B0167
:1007D000E0925A01E4CF8FEF90E00E94CF00B092F8
:1007E0005B01A0925A01DBCF883711F7C0915A0103
:1007F000D0915B01CE010197039788F690E080E0ED
:100800000E94CF0010925B0110925A01C8CFE5E61A
:10081000F1E01382128288EE93E0A0E0B0E08483DE
:100820009583A683B78384E091E09183808385ECF0
:1008300090E09587848784EC90E09787868780ECAA
:1008400090E0918B808B81EC90E0938B828B82EC9B
:1008500090E0958B848B86EC90E0978B868B118E45
:10086000128E138E148E0895EE0FFF1F0590F491D3
:08087000E02D0994F894FFCF7C
:1008780000000000D60136016301230294017201D1
:1008880086010D0A004C6967687420636F6E747284
:100898006F6C206170706C69636174696F6E002D94
:1008A8002D2D2D2D2D2D2D2D2D2D2D2D2D2D2D2D70
:1008B8002D2D2D2D2D2D2D2D0053656E642027787F
:0A08C80027206F7220276F27000021
:00000001FF
